{
  "contractName": "PrivateBank",
  "abi": [
    {
      "inputs": [],
      "stateMutability": "nonpayable",
      "type": "constructor"
    },
    {
      "inputs": [
        {
          "internalType": "uint256",
          "name": "",
          "type": "uint256"
        }
      ],
      "name": "_patients",
      "outputs": [
        {
          "internalType": "address",
          "name": "personid",
          "type": "address"
        },
        {
          "internalType": "uint256",
          "name": "starttime",
          "type": "uint256"
        },
        {
          "internalType": "uint256",
          "name": "endtime",
          "type": "uint256"
        },
        {
          "internalType": "bool",
          "name": "ispresent",
          "type": "bool"
        },
        {
          "internalType": "bool",
          "name": "expired",
          "type": "bool"
        }
      ],
      "stateMutability": "view",
      "type": "function",
      "constant": true
    },
    {
      "inputs": [],
      "name": "admin",
      "outputs": [
        {
          "internalType": "address",
          "name": "",
          "type": "address"
        }
      ],
      "stateMutability": "view",
      "type": "function",
      "constant": true
    },
    {
      "inputs": [],
      "name": "basecost",
      "outputs": [
        {
          "internalType": "uint256",
          "name": "",
          "type": "uint256"
        }
      ],
      "stateMutability": "view",
      "type": "function",
      "constant": true
    },
    {
      "inputs": [],
      "name": "total",
      "outputs": [
        {
          "internalType": "uint256",
          "name": "",
          "type": "uint256"
        }
      ],
      "stateMutability": "view",
      "type": "function",
      "constant": true
    },
    {
      "inputs": [],
      "name": "verifier",
      "outputs": [
        {
          "internalType": "address",
          "name": "",
          "type": "address"
        }
      ],
      "stateMutability": "view",
      "type": "function",
      "constant": true
    },
    {
      "inputs": [
        {
          "internalType": "address",
          "name": "personID",
          "type": "address"
        }
      ],
      "name": "registerCandidate",
      "outputs": [],
      "stateMutability": "payable",
      "type": "function",
      "payable": true
    },
    {
      "inputs": [
        {
          "internalType": "address",
          "name": "id",
          "type": "address"
        }
      ],
      "name": "getMyRemainingTime",
      "outputs": [
        {
          "internalType": "uint256",
          "name": "",
          "type": "uint256"
        }
      ],
      "stateMutability": "nonpayable",
      "type": "function"
    },
    {
      "inputs": [
        {
          "internalType": "address",
          "name": "id",
          "type": "address"
        }
      ],
      "name": "findIndex",
      "outputs": [
        {
          "internalType": "uint256",
          "name": "",
          "type": "uint256"
        }
      ],
      "stateMutability": "view",
      "type": "function",
      "constant": true
    },
    {
      "inputs": [
        {
          "internalType": "address",
          "name": "id",
          "type": "address"
        }
      ],
      "name": "isPresent",
      "outputs": [
        {
          "internalType": "bool",
          "name": "",
          "type": "bool"
        }
      ],
      "stateMutability": "view",
      "type": "function",
      "constant": true
    },
    {
      "inputs": [],
      "name": "getVerifier",
      "outputs": [
        {
          "internalType": "address",
          "name": "",
          "type": "address"
        }
      ],
      "stateMutability": "view",
      "type": "function",
      "constant": true
    },
    {
      "inputs": [
        {
          "internalType": "address",
          "name": "id",
          "type": "address"
        }
      ],
      "name": "expired",
      "outputs": [
        {
          "internalType": "bool",
          "name": "",
          "type": "bool"
        }
      ],
      "stateMutability": "nonpayable",
      "type": "function"
    },
    {
      "inputs": [],
      "name": "getContractBalance",
      "outputs": [
        {
          "internalType": "uint256",
          "name": "",
          "type": "uint256"
        }
      ],
      "stateMutability": "view",
      "type": "function",
      "constant": true
    },
    {
      "inputs": [],
      "name": "getAllClients",
      "outputs": [
        {
          "components": [
            {
              "internalType": "address",
              "name": "personid",
              "type": "address"
            },
            {
              "internalType": "uint256",
              "name": "starttime",
              "type": "uint256"
            },
            {
              "internalType": "uint256",
              "name": "endtime",
              "type": "uint256"
            },
            {
              "internalType": "bool",
              "name": "ispresent",
              "type": "bool"
            },
            {
              "internalType": "bool",
              "name": "expired",
              "type": "bool"
            }
          ],
          "internalType": "struct PrivateBank.client[100]",
          "name": "",
          "type": "tuple[100]"
        }
      ],
      "stateMutability": "view",
      "type": "function",
      "constant": true
    },
    {
      "inputs": [
        {
          "internalType": "address",
          "name": "verifieraddress",
          "type": "address"
        }
      ],
      "name": "setVerifier",
      "outputs": [],
      "stateMutability": "nonpayable",
      "type": "function"
    },
    {
      "inputs": [
        {
          "internalType": "address",
          "name": "id",
          "type": "address"
        }
      ],
      "name": "verification",
      "outputs": [],
      "stateMutability": "nonpayable",
      "type": "function"
    },
    {
      "inputs": [
        {
          "internalType": "address payable",
          "name": "to",
          "type": "address"
        }
      ],
      "name": "transerferToClient",
      "outputs": [
        {
          "internalType": "string",
          "name": "",
          "type": "string"
        }
      ],
      "stateMutability": "payable",
      "type": "function",
      "payable": true
    }
  ],
  "bytecode": "0x608060405234801561001057600080fd5b503361019360006101000a81548173ffffffffffffffffffffffffffffffffffffffff021916908373ffffffffffffffffffffffffffffffffffffffff16021790555066071afd498d00006001819055506000610192819055506114a0806100796000396000f3fe6080604052600436106100f35760003560e01c806392b4e1321161008a578063cfb0f97511610059578063cfb0f97514610335578063e4d7a3d414610365578063f06a10e014610390578063f851a440146103cd576100f3565b806392b4e13214610263578063a532fca91461028c578063b55984e1146102c9578063bcf836341461030a576100f3565b80636f9fb98a116100c65780636f9fb98a146101a2578063761bdc1e146101cd57806384aa3b931461020a57806389f69a8e14610226576100f3565b80632b7ac3f3146100f85780632ddbd13a1461012357806346657fe91461014e5780635437988d14610179575b600080fd5b34801561010457600080fd5b5061010d6103f8565b60405161011a9190610da8565b60405180910390f35b34801561012f57600080fd5b5061013861041c565b6040516101459190610ddc565b60405180910390f35b34801561015a57600080fd5b50610163610423565b6040516101709190610da8565b60405180910390f35b34801561018557600080fd5b506101a0600480360381019061019b9190610e28565b61044c565b005b3480156101ae57600080fd5b506101b7610520565b6040516101c49190610ddc565b60405180910390f35b3480156101d957600080fd5b506101f460048036038101906101ef9190610e28565b610528565b6040516102019190610e70565b60405180910390f35b610224600480360381019061021f9190610e28565b61060b565b005b34801561023257600080fd5b5061024d60048036038101906102489190610e28565b610786565b60405161025a9190610ddc565b60405180910390f35b34801561026f57600080fd5b5061028a60048036038101906102859190610e28565b6107f6565b005b34801561029857600080fd5b506102b360048036038101906102ae9190610e28565b6108f1565b6040516102c09190610ddc565b60405180910390f35b3480156102d557600080fd5b506102f060048036038101906102eb9190610eb7565b6109dd565b604051610301959493929190610ee4565b60405180910390f35b34801561031657600080fd5b5061031f610a53565b60405161032c9190610ddc565b60405180910390f35b61034f600480360381019061034a9190610f75565b610a59565b60405161035c919061103b565b60405180910390f35b34801561037157600080fd5b5061037a610b6f565b604051610387919061118e565b60405180910390f35b34801561039c57600080fd5b506103b760048036038101906103b29190610e28565b610c61565b6040516103c49190610e70565b60405180910390f35b3480156103d957600080fd5b506103e2610cc9565b6040516103ef9190610da8565b60405180910390f35b60008054906101000a900473ffffffffffffffffffffffffffffffffffffffff1681565b6101925481565b60008060009054906101000a900473ffffffffffffffffffffffffffffffffffffffff16905090565b61019360009054906101000a900473ffffffffffffffffffffffffffffffffffffffff1673ffffffffffffffffffffffffffffffffffffffff163373ffffffffffffffffffffffffffffffffffffffff16146104dd576040517f08c379a00000000000000000000000000000000000000000000000000000000081526004016104d49061121c565b60405180910390fd5b806000806101000a81548173ffffffffffffffffffffffffffffffffffffffff021916908373ffffffffffffffffffffffffffffffffffffffff16021790555050565b600047905090565b600080610534836108f1565b905060006002826064811061054c5761054b61123c565b5b600402016040518060a00160405290816000820160009054906101000a900473ffffffffffffffffffffffffffffffffffffffff1673ffffffffffffffffffffffffffffffffffffffff1673ffffffffffffffffffffffffffffffffffffffff16815260200160018201548152602001600282015481526020016003820160009054906101000a900460ff161515151581526020016003820160019054906101000a900460ff1615151515815250509050806060015192505050919050565b600154341161064f576040517f08c379a0000000000000000000000000000000000000000000000000000000008152600401610646906112b7565b60405180910390fd5b80600261019254606481106106675761066661123c565b5b6004020160000160006101000a81548173ffffffffffffffffffffffffffffffffffffffff021916908373ffffffffffffffffffffffffffffffffffffffff16021790555042600261019254606481106106c4576106c361123c565b5b60040201600101819055506001600261019254606481106106e8576106e761123c565b5b6004020160030160006101000a81548160ff02191690831515021790555060006002610192546064811061071f5761071e61123c565b5b6004020160030160016101000a81548160ff021916908315150217905550600a4261074a9190611306565b600261019254606481106107615761076061123c565b5b600402016002018190555060016101925461077c9190611306565b6101928190555050565b6000806002610794846108f1565b606481106107a5576107a461123c565b5b600402019050806002015442106107dd5760018160030160016101000a81548160ff02191690831515021790555060009150506107f1565b4281600201546107ed919061135c565b9150505b919050565b60008054906101000a900473ffffffffffffffffffffffffffffffffffffffff1673ffffffffffffffffffffffffffffffffffffffff163373ffffffffffffffffffffffffffffffffffffffff1614610884576040517f08c379a000000000000000000000000000000000000000000000000000000000815260040161087b9061121c565b60405180910390fd5b600061088f826108f1565b90506000600282606481106108a7576108a661123c565b5b60040201905060018160030160006101000a81548160ff0219169083151502179055156108ec5760008160030160006101000a81548160ff0219169083151502179055505b505050565b600080600090505b6101925481101561098e578273ffffffffffffffffffffffffffffffffffffffff166002826064811061092f5761092e61123c565b5b6004020160000160009054906101000a900473ffffffffffffffffffffffffffffffffffffffff1673ffffffffffffffffffffffffffffffffffffffff160361097b57809150506109d8565b808061098690611390565b9150506108f9565b5060026001146109d3576040517f08c379a00000000000000000000000000000000000000000000000000000000081526004016109ca9061144a565b60405180910390fd5b600090505b919050565b600281606481106109ed57600080fd5b600402016000915090508060000160009054906101000a900473ffffffffffffffffffffffffffffffffffffffff16908060010154908060020154908060030160009054906101000a900460ff16908060030160019054906101000a900460ff16905085565b60015481565b606060008054906101000a900473ffffffffffffffffffffffffffffffffffffffff1673ffffffffffffffffffffffffffffffffffffffff163373ffffffffffffffffffffffffffffffffffffffff1614610ae9576040517f08c379a0000000000000000000000000000000000000000000000000000000008152600401610ae09061121c565b60405180910390fd5b8173ffffffffffffffffffffffffffffffffffffffff166108fc6001549081150290604051600060405180830381858888f19350505050158015610b31573d6000803e3d6000fd5b506040518060400160405280600781526020017f53756363657373000000000000000000000000000000000000000000000000008152509050919050565b610b77610cf0565b6002606480602002604051908101604052809291906000905b82821015610c58578382600402016040518060a00160405290816000820160009054906101000a900473ffffffffffffffffffffffffffffffffffffffff1673ffffffffffffffffffffffffffffffffffffffff1673ffffffffffffffffffffffffffffffffffffffff16815260200160018201548152602001600282015481526020016003820160009054906101000a900460ff161515151581526020016003820160019054906101000a900460ff16151515158152505081526020019060010190610b90565b50505050905090565b6000806002610c6f846108f1565b60648110610c8057610c7f61123c565b5b60040201905080600201544210610caf5760018160030160016101000a81548160ff0219169083151502179055505b8060030160019054906101000a900460ff16915050919050565b61019360009054906101000a900473ffffffffffffffffffffffffffffffffffffffff1681565b60405180610c8001604052806064905b610d08610d1e565b815260200190600190039081610d005790505090565b6040518060a00160405280600073ffffffffffffffffffffffffffffffffffffffff16815260200160008152602001600081526020016000151581526020016000151581525090565b600073ffffffffffffffffffffffffffffffffffffffff82169050919050565b6000610d9282610d67565b9050919050565b610da281610d87565b82525050565b6000602082019050610dbd6000830184610d99565b92915050565b6000819050919050565b610dd681610dc3565b82525050565b6000602082019050610df16000830184610dcd565b92915050565b600080fd5b610e0581610d87565b8114610e1057600080fd5b50565b600081359050610e2281610dfc565b92915050565b600060208284031215610e3e57610e3d610df7565b5b6000610e4c84828501610e13565b91505092915050565b60008115159050919050565b610e6a81610e55565b82525050565b6000602082019050610e856000830184610e61565b92915050565b610e9481610dc3565b8114610e9f57600080fd5b50565b600081359050610eb181610e8b565b92915050565b600060208284031215610ecd57610ecc610df7565b5b6000610edb84828501610ea2565b91505092915050565b600060a082019050610ef96000830188610d99565b610f066020830187610dcd565b610f136040830186610dcd565b610f206060830185610e61565b610f2d6080830184610e61565b9695505050505050565b6000610f4282610d67565b9050919050565b610f5281610f37565b8114610f5d57600080fd5b50565b600081359050610f6f81610f49565b92915050565b600060208284031215610f8b57610f8a610df7565b5b6000610f9984828501610f60565b91505092915050565b600081519050919050565b600082825260208201905092915050565b60005b83811015610fdc578082015181840152602081019050610fc1565b83811115610feb576000848401525b50505050565b6000601f19601f8301169050919050565b600061100d82610fa2565b6110178185610fad565b9350611027818560208601610fbe565b61103081610ff1565b840191505092915050565b600060208201905081810360008301526110558184611002565b905092915050565b600060649050919050565b600081905092915050565b6000819050919050565b61108681610d87565b82525050565b61109581610dc3565b82525050565b6110a481610e55565b82525050565b60a0820160008201516110c0600085018261107d565b5060208201516110d3602085018261108c565b5060408201516110e6604085018261108c565b5060608201516110f9606085018261109b565b50608082015161110c608085018261109b565b50505050565b600061111e83836110aa565b60a08301905092915050565b6000602082019050919050565b6111408161105d565b61114a8184611068565b925061115582611073565b8060005b8381101561118657815161116d8782611112565b96506111788361112a565b925050600181019050611159565b505050505050565b6000613e80820190506111a46000830184611137565b92915050565b7f596f7520617265206e6f7420617574686f72697a656420746f20646f2074686960008201527f7300000000000000000000000000000000000000000000000000000000000000602082015250565b6000611206602183610fad565b9150611211826111aa565b604082019050919050565b60006020820190508181036000830152611235816111f9565b9050919050565b7f4e487b7100000000000000000000000000000000000000000000000000000000600052603260045260246000fd5b7f596f7520646f6e7420686176652073756666696369656e742063726564697473600082015250565b60006112a1602083610fad565b91506112ac8261126b565b602082019050919050565b600060208201905081810360008301526112d081611294565b9050919050565b7f4e487b7100000000000000000000000000000000000000000000000000000000600052601160045260246000fd5b600061131182610dc3565b915061131c83610dc3565b9250827fffffffffffffffffffffffffffffffffffffffffffffffffffffffffffffffff03821115611351576113506112d7565b5b828201905092915050565b600061136782610dc3565b915061137283610dc3565b925082821015611385576113846112d7565b5b828203905092915050565b600061139b82610dc3565b91507fffffffffffffffffffffffffffffffffffffffffffffffffffffffffffffffff82036113cd576113cc6112d7565b5b600182019050919050565b7f596f752068617665206e6f74207265676973746572656420776974682075732060008201527f2100000000000000000000000000000000000000000000000000000000000000602082015250565b6000611434602183610fad565b915061143f826113d8565b604082019050919050565b6000602082019050818103600083015261146381611427565b905091905056fea26469706673582212209ac082d2b40e43eace398a2550fa55a8484f0a89e54f2eb428249044bc70601564736f6c634300080e0033",
  "immutableReferences": {},
  "source": "// SPDX-License-Identifier: GPL-3.0\r\npragma solidity >=0.7.0 <0.9.0;\r\n\r\ncontract PrivateBank {\r\n    struct client{\r\n        address personid;\r\n        uint starttime;\r\n        uint endtime;\r\n        bool ispresent;\r\n        bool expired;\r\n    }\r\n    address public verifier;\r\n    uint public basecost;\r\n    // mapping (address => string) public  dataLink;\r\n    client [100] public _patients;\r\n    // uint [100] public  balance;\r\n    uint public  total;\r\n    address public admin;\r\n\r\n    constructor(){\r\n        admin = msg.sender;\r\n        basecost = .002 ether;\r\n        total = 0;\r\n    }\r\n\r\n    function registerCandidate(address personID) public payable{\r\n        \r\n        require(msg.value > basecost , \"You dont have sufficient credits\");\r\n\r\n        _patients[total].personid = personID;\r\n        _patients[total].starttime = block.timestamp;\r\n        _patients[  total].ispresent = true;\r\n        _patients[total].expired = false;\r\n        // _patients[total].endtime = block.timestamp + (7 days)*(30*12*10);\r\n        _patients[total].endtime = block.timestamp + (10);\r\n        total = total + 1;\r\n    }\r\n\r\n    function getMyRemainingTime(address id) public returns (uint){\r\n        client storage curr = _patients[findIndex(id)];\r\n\r\n        if(block.timestamp >= curr.endtime){\r\n            curr.expired = true;\r\n            return 0;\r\n        }\r\n        return (curr.endtime - block.timestamp);\r\n    }\r\n\r\n    function findIndex(address id) public view returns (uint) {\r\n        for(uint i = 0 ;i < total; i++){\r\n            if(_patients[i].personid == id){\r\n                return i;\r\n            }\r\n        }        \r\n        require((1==2) , \"You have not registered with us !\" );\r\n        return (0);\r\n    }\r\n\r\n    function isPresent(address id)public view returns (bool){\r\n        uint pos = findIndex(id);\r\n        client memory curr = _patients[pos] ;\r\n        return  curr.ispresent;\r\n    }\r\n    \r\n    function getVerifier()public view returns (address){\r\n        return verifier;\r\n    }\r\n\r\n    function expired(address id)public  returns (bool){        \r\n        client storage curr = _patients[findIndex(id)];\r\n\r\n        if(block.timestamp >= curr.endtime){\r\n            curr.expired = true;\r\n        }\r\n        return  curr.expired;\r\n    }\r\n\r\n    function getContractBalance()public view returns(uint) {\r\n        return address(this).balance;\r\n    }\r\n\r\n    function getAllClients()public view returns(client[100] memory ) {\r\n        return _patients;\r\n    }\r\n    \r\n    modifier verify{\r\n        require(msg.sender == verifier,\"You are not authorized to do this\");\r\n        _;  \r\n    }\r\n    modifier isadmin{\r\n        require(msg.sender == admin,\"You are not authorized to do this\");\r\n        _;  \r\n    }\r\n\r\n    function setVerifier(address verifieraddress)public isadmin {\r\n        verifier = verifieraddress;\r\n    }\r\n\r\n    function verification(address id)public verify {\r\n        uint pos = findIndex(id);\r\n        client storage curr = _patients[pos];\r\n        if(curr.ispresent = true){\r\n            curr.ispresent = false;\r\n        }\r\n    }\r\n    function transerferToClient(address payable to) verify public payable returns(string memory) {        \r\n        to.transfer(basecost);\r\n        return  \"Success\";\r\n    }\r\n    \r\n}",
  "sourcePath": "G:\\coding\\blockChain\\apps\\minor\\smartc\\truffle\\contracts\\PrivateBank.sol",
  "compiler": {
    "name": "solc",
    "version": "0.8.14+commit.80d49f37.Emscripten.clang"
  },
  "schemaVersion": "3.4.4",
  "updatedAt": "2022-10-01T16:36:22.949Z",
  "networkType": "ethereum",
  "devdoc": {
    "kind": "dev",
    "methods": {},
    "version": 1
  },
  "userdoc": {
    "kind": "user",
    "methods": {},
    "version": 1
  }
}